{
  "_format": "hh-sol-artifact-1",
  "contractName": "MCrossCollection",
  "sourceName": "contracts/MCross-NFT.sol",
  "abi": [
    {
      "inputs": [
        {
          "internalType": "string",
          "name": "_name",
          "type": "string"
        },
        {
          "internalType": "string",
          "name": "_symbol",
          "type": "string"
        },
        {
          "internalType": "string",
          "name": "_initBaseURI",
          "type": "string"
        },
        {
          "internalType": "address",
          "name": "gateway",
          "type": "address"
        }
      ],
      "stateMutability": "nonpayable",
      "type": "constructor"
    },
    {
      "inputs": [],
      "name": "NotApprovedByGateway",
      "type": "error"
    },
    {
      "anonymous": false,
      "inputs": [
        {
          "indexed": true,
          "internalType": "address",
          "name": "owner",
          "type": "address"
        },
        {
          "indexed": true,
          "internalType": "address",
          "name": "approved",
          "type": "address"
        },
        {
          "indexed": true,
          "internalType": "uint256",
          "name": "tokenId",
          "type": "uint256"
        }
      ],
      "name": "Approval",
      "type": "event"
    },
    {
      "anonymous": false,
      "inputs": [
        {
          "indexed": true,
          "internalType": "address",
          "name": "owner",
          "type": "address"
        },
        {
          "indexed": true,
          "internalType": "address",
          "name": "operator",
          "type": "address"
        },
        {
          "indexed": false,
          "internalType": "bool",
          "name": "approved",
          "type": "bool"
        }
      ],
      "name": "ApprovalForAll",
      "type": "event"
    },
    {
      "anonymous": false,
      "inputs": [
        {
          "indexed": true,
          "internalType": "address",
          "name": "previousOwner",
          "type": "address"
        },
        {
          "indexed": true,
          "internalType": "address",
          "name": "newOwner",
          "type": "address"
        }
      ],
      "name": "OwnershipTransferred",
      "type": "event"
    },
    {
      "anonymous": false,
      "inputs": [
        {
          "indexed": true,
          "internalType": "address",
          "name": "from",
          "type": "address"
        },
        {
          "indexed": true,
          "internalType": "address",
          "name": "to",
          "type": "address"
        },
        {
          "indexed": true,
          "internalType": "uint256",
          "name": "tokenId",
          "type": "uint256"
        }
      ],
      "name": "Transfer",
      "type": "event"
    },
    {
      "inputs": [
        {
          "internalType": "address",
          "name": "to",
          "type": "address"
        },
        {
          "internalType": "uint256",
          "name": "tokenId",
          "type": "uint256"
        }
      ],
      "name": "approve",
      "outputs": [],
      "stateMutability": "nonpayable",
      "type": "function"
    },
    {
      "inputs": [
        {
          "internalType": "address",
          "name": "owner",
          "type": "address"
        }
      ],
      "name": "balanceOf",
      "outputs": [
        {
          "internalType": "uint256",
          "name": "",
          "type": "uint256"
        }
      ],
      "stateMutability": "view",
      "type": "function"
    },
    {
      "inputs": [],
      "name": "baseExtension",
      "outputs": [
        {
          "internalType": "string",
          "name": "",
          "type": "string"
        }
      ],
      "stateMutability": "view",
      "type": "function"
    },
    {
      "inputs": [],
      "name": "baseURI",
      "outputs": [
        {
          "internalType": "string",
          "name": "",
          "type": "string"
        }
      ],
      "stateMutability": "view",
      "type": "function"
    },
    {
      "inputs": [],
      "name": "cost",
      "outputs": [
        {
          "internalType": "uint256",
          "name": "",
          "type": "uint256"
        }
      ],
      "stateMutability": "view",
      "type": "function"
    },
    {
      "inputs": [
        {
          "internalType": "bytes32",
          "name": "commandId",
          "type": "bytes32"
        },
        {
          "internalType": "string",
          "name": "sourceChain",
          "type": "string"
        },
        {
          "internalType": "string",
          "name": "sourceAddress",
          "type": "string"
        },
        {
          "internalType": "bytes",
          "name": "payload",
          "type": "bytes"
        }
      ],
      "name": "execute",
      "outputs": [],
      "stateMutability": "nonpayable",
      "type": "function"
    },
    {
      "inputs": [
        {
          "internalType": "bytes32",
          "name": "commandId",
          "type": "bytes32"
        },
        {
          "internalType": "string",
          "name": "sourceChain",
          "type": "string"
        },
        {
          "internalType": "string",
          "name": "sourceAddress",
          "type": "string"
        },
        {
          "internalType": "bytes",
          "name": "payload",
          "type": "bytes"
        },
        {
          "internalType": "string",
          "name": "tokenSymbol",
          "type": "string"
        },
        {
          "internalType": "uint256",
          "name": "amount",
          "type": "uint256"
        }
      ],
      "name": "executeWithToken",
      "outputs": [],
      "stateMutability": "nonpayable",
      "type": "function"
    },
    {
      "inputs": [],
      "name": "gateway",
      "outputs": [
        {
          "internalType": "contract IAxelarGateway",
          "name": "",
          "type": "address"
        }
      ],
      "stateMutability": "view",
      "type": "function"
    },
    {
      "inputs": [
        {
          "internalType": "uint256",
          "name": "tokenId",
          "type": "uint256"
        }
      ],
      "name": "getApproved",
      "outputs": [
        {
          "internalType": "address",
          "name": "",
          "type": "address"
        }
      ],
      "stateMutability": "view",
      "type": "function"
    },
    {
      "inputs": [
        {
          "internalType": "address",
          "name": "owner",
          "type": "address"
        },
        {
          "internalType": "address",
          "name": "operator",
          "type": "address"
        }
      ],
      "name": "isApprovedForAll",
      "outputs": [
        {
          "internalType": "bool",
          "name": "",
          "type": "bool"
        }
      ],
      "stateMutability": "view",
      "type": "function"
    },
    {
      "inputs": [],
      "name": "maxMintAmount",
      "outputs": [
        {
          "internalType": "uint256",
          "name": "",
          "type": "uint256"
        }
      ],
      "stateMutability": "view",
      "type": "function"
    },
    {
      "inputs": [],
      "name": "maxSupply",
      "outputs": [
        {
          "internalType": "uint256",
          "name": "",
          "type": "uint256"
        }
      ],
      "stateMutability": "view",
      "type": "function"
    },
    {
      "inputs": [
        {
          "internalType": "uint256",
          "name": "_mintAmount",
          "type": "uint256"
        }
      ],
      "name": "mint",
      "outputs": [],
      "stateMutability": "payable",
      "type": "function"
    },
    {
      "inputs": [],
      "name": "name",
      "outputs": [
        {
          "internalType": "string",
          "name": "",
          "type": "string"
        }
      ],
      "stateMutability": "view",
      "type": "function"
    },
    {
      "inputs": [],
      "name": "owner",
      "outputs": [
        {
          "internalType": "address",
          "name": "",
          "type": "address"
        }
      ],
      "stateMutability": "view",
      "type": "function"
    },
    {
      "inputs": [
        {
          "internalType": "uint256",
          "name": "tokenId",
          "type": "uint256"
        }
      ],
      "name": "ownerOf",
      "outputs": [
        {
          "internalType": "address",
          "name": "",
          "type": "address"
        }
      ],
      "stateMutability": "view",
      "type": "function"
    },
    {
      "inputs": [
        {
          "internalType": "bool",
          "name": "_state",
          "type": "bool"
        }
      ],
      "name": "pause",
      "outputs": [],
      "stateMutability": "nonpayable",
      "type": "function"
    },
    {
      "inputs": [],
      "name": "paused",
      "outputs": [
        {
          "internalType": "bool",
          "name": "",
          "type": "bool"
        }
      ],
      "stateMutability": "view",
      "type": "function"
    },
    {
      "inputs": [],
      "name": "renounceOwnership",
      "outputs": [],
      "stateMutability": "nonpayable",
      "type": "function"
    },
    {
      "inputs": [
        {
          "internalType": "address",
          "name": "from",
          "type": "address"
        },
        {
          "internalType": "address",
          "name": "to",
          "type": "address"
        },
        {
          "internalType": "uint256",
          "name": "tokenId",
          "type": "uint256"
        }
      ],
      "name": "safeTransferFrom",
      "outputs": [],
      "stateMutability": "nonpayable",
      "type": "function"
    },
    {
      "inputs": [
        {
          "internalType": "address",
          "name": "from",
          "type": "address"
        },
        {
          "internalType": "address",
          "name": "to",
          "type": "address"
        },
        {
          "internalType": "uint256",
          "name": "tokenId",
          "type": "uint256"
        },
        {
          "internalType": "bytes",
          "name": "_data",
          "type": "bytes"
        }
      ],
      "name": "safeTransferFrom",
      "outputs": [],
      "stateMutability": "nonpayable",
      "type": "function"
    },
    {
      "inputs": [
        {
          "internalType": "address",
          "name": "operator",
          "type": "address"
        },
        {
          "internalType": "bool",
          "name": "approved",
          "type": "bool"
        }
      ],
      "name": "setApprovalForAll",
      "outputs": [],
      "stateMutability": "nonpayable",
      "type": "function"
    },
    {
      "inputs": [
        {
          "internalType": "string",
          "name": "_newBaseExtension",
          "type": "string"
        }
      ],
      "name": "setBaseExtension",
      "outputs": [],
      "stateMutability": "nonpayable",
      "type": "function"
    },
    {
      "inputs": [
        {
          "internalType": "string",
          "name": "_newBaseURI",
          "type": "string"
        }
      ],
      "name": "setBaseURI",
      "outputs": [],
      "stateMutability": "nonpayable",
      "type": "function"
    },
    {
      "inputs": [
        {
          "internalType": "uint256",
          "name": "_newCost",
          "type": "uint256"
        }
      ],
      "name": "setCost",
      "outputs": [],
      "stateMutability": "nonpayable",
      "type": "function"
    },
    {
      "inputs": [
        {
          "internalType": "address",
          "name": "_newAddress",
          "type": "address"
        }
      ],
      "name": "setWETHAddress",
      "outputs": [],
      "stateMutability": "nonpayable",
      "type": "function"
    },
    {
      "inputs": [
        {
          "internalType": "uint256",
          "name": "_newmaxMintAmount",
          "type": "uint256"
        }
      ],
      "name": "setmaxMintAmount",
      "outputs": [],
      "stateMutability": "nonpayable",
      "type": "function"
    },
    {
      "inputs": [
        {
          "internalType": "bytes4",
          "name": "interfaceId",
          "type": "bytes4"
        }
      ],
      "name": "supportsInterface",
      "outputs": [
        {
          "internalType": "bool",
          "name": "",
          "type": "bool"
        }
      ],
      "stateMutability": "view",
      "type": "function"
    },
    {
      "inputs": [],
      "name": "symbol",
      "outputs": [
        {
          "internalType": "string",
          "name": "",
          "type": "string"
        }
      ],
      "stateMutability": "view",
      "type": "function"
    },
    {
      "inputs": [
        {
          "internalType": "uint256",
          "name": "index",
          "type": "uint256"
        }
      ],
      "name": "tokenByIndex",
      "outputs": [
        {
          "internalType": "uint256",
          "name": "",
          "type": "uint256"
        }
      ],
      "stateMutability": "view",
      "type": "function"
    },
    {
      "inputs": [
        {
          "internalType": "address",
          "name": "owner",
          "type": "address"
        },
        {
          "internalType": "uint256",
          "name": "index",
          "type": "uint256"
        }
      ],
      "name": "tokenOfOwnerByIndex",
      "outputs": [
        {
          "internalType": "uint256",
          "name": "",
          "type": "uint256"
        }
      ],
      "stateMutability": "view",
      "type": "function"
    },
    {
      "inputs": [
        {
          "internalType": "uint256",
          "name": "tokenId",
          "type": "uint256"
        }
      ],
      "name": "tokenURI",
      "outputs": [
        {
          "internalType": "string",
          "name": "",
          "type": "string"
        }
      ],
      "stateMutability": "view",
      "type": "function"
    },
    {
      "inputs": [],
      "name": "totalSupply",
      "outputs": [
        {
          "internalType": "uint256",
          "name": "",
          "type": "uint256"
        }
      ],
      "stateMutability": "view",
      "type": "function"
    },
    {
      "inputs": [
        {
          "internalType": "address",
          "name": "from",
          "type": "address"
        },
        {
          "internalType": "address",
          "name": "to",
          "type": "address"
        },
        {
          "internalType": "uint256",
          "name": "tokenId",
          "type": "uint256"
        }
      ],
      "name": "transferFrom",
      "outputs": [],
      "stateMutability": "nonpayable",
      "type": "function"
    },
    {
      "inputs": [
        {
          "internalType": "address",
          "name": "newOwner",
          "type": "address"
        }
      ],
      "name": "transferOwnership",
      "outputs": [],
      "stateMutability": "nonpayable",
      "type": "function"
    },
    {
      "inputs": [],
      "name": "usercanRefund",
      "outputs": [],
      "stateMutability": "nonpayable",
      "type": "function"
    },
    {
      "inputs": [
        {
          "internalType": "address",
          "name": "_owner",
          "type": "address"
        }
      ],
      "name": "walletOfOwner",
      "outputs": [
        {
          "internalType": "uint256[]",
          "name": "",
          "type": "uint256[]"
        }
      ],
      "stateMutability": "view",
      "type": "function"
    },
    {
      "inputs": [],
      "name": "withdraw",
      "outputs": [],
      "stateMutability": "payable",
      "type": "function"
    },
    {
      "inputs": [],
      "name": "withdrawWETH",
      "outputs": [],
      "stateMutability": "nonpayable",
      "type": "function"
    }
  ],
  "bytecode": "0x60c06040526005608081905264173539b7b760d91b60a09081526200002891600d9190620001fa565b5066470de4df820000600e556103e8600f556005601055601180546001600160a81b03191674c778417e063141139fce010982780140aa0cd5ab001790553480156200007357600080fd5b5060405162002f6338038062002f6383398101604081905262000096916200036d565b8084848160009080519060200190620000b1929190620001fa565b508051620000c7906001906020840190620001fa565b505050620000e4620000de6200012c60201b60201c565b62000130565b600b80546001600160a01b0319166001600160a01b03929092169190911790556200010f8262000182565b5050601480546001600160a01b03191633179055506200045d9050565b3390565b600a80546001600160a01b038381166001600160a01b0319831681179093556040519116919082907f8be0079c531659141344cd1fd0a4f28419497f9722a3daafe3b4186f6b6457e090600090a35050565b600a546001600160a01b03163314620001e15760405162461bcd60e51b815260206004820181905260248201527f4f776e61626c653a2063616c6c6572206973206e6f7420746865206f776e6572604482015260640160405180910390fd5b8051620001f690600c906020840190620001fa565b5050565b828054620002089062000420565b90600052602060002090601f0160209004810192826200022c576000855562000277565b82601f106200024757805160ff191683800117855562000277565b8280016001018555821562000277579182015b82811115620002775782518255916020019190600101906200025a565b506200028592915062000289565b5090565b5b808211156200028557600081556001016200028a565b634e487b7160e01b600052604160045260246000fd5b600082601f830112620002c857600080fd5b81516001600160401b0380821115620002e557620002e5620002a0565b604051601f8301601f19908116603f01168101908282118183101715620003105762000310620002a0565b816040528381526020925086838588010111156200032d57600080fd5b600091505b8382101562000351578582018301518183018401529082019062000332565b83821115620003635760008385830101525b9695505050505050565b600080600080608085870312156200038457600080fd5b84516001600160401b03808211156200039c57600080fd5b620003aa88838901620002b6565b95506020870151915080821115620003c157600080fd5b620003cf88838901620002b6565b94506040870151915080821115620003e657600080fd5b50620003f587828801620002b6565b606087015190935090506001600160a01b03811681146200041557600080fd5b939692955090935050565b600181811c908216806200043557607f821691505b602082108114156200045757634e487b7160e01b600052602260045260246000fd5b50919050565b612af6806200046d6000396000f3fe6080604052600436106102305760003560e01c806355f804b31161012e578063a0712d68116100ab578063c87b56dd1161006f578063c87b56dd14610633578063d5abeb0114610653578063da3ef23f14610669578063e985e9c514610689578063f2fde38b146106d257600080fd5b8063a0712d68146105b6578063a22cb465146105c9578063b88d4fde146105e9578063c389201b14610609578063c66828621461061e57600080fd5b806370a08231116100f257806370a082311461052e578063715018a61461054e5780637f00c7a6146105635780638da5cb5b1461058357806395d89b41146105a157600080fd5b806355f804b31461049f5780635c975abb146104bf5780636352211e146104d95780636a4234eb146104f95780636c0360eb1461051957600080fd5b8063239c70ae116101bc578063438b630011610180578063438b6300146103fd57806344a0d68a1461042a578063491606581461044a5780634c02f62e1461046a5780634f6ccce71461047f57600080fd5b8063239c70ae1461037f57806323b872dd146103955780632f745c59146103b55780633ccfd60b146103d557806342842e0e146103dd57600080fd5b8063095ea7b311610203578063095ea7b3146102e6578063116191b61461030657806313faede61461032657806318160ddd1461034a5780631a98b2e01461035f57600080fd5b806301ffc9a71461023557806302329a291461026a57806306fdde031461028c578063081812fc146102ae575b600080fd5b34801561024157600080fd5b5061025561025036600461217e565b6106f2565b60405190151581526020015b60405180910390f35b34801561027657600080fd5b5061028a6102853660046121a9565b61071d565b005b34801561029857600080fd5b506102a1610763565b604051610261919061221e565b3480156102ba57600080fd5b506102ce6102c9366004612231565b6107f5565b6040516001600160a01b039091168152602001610261565b3480156102f257600080fd5b5061028a61030136600461225f565b61088a565b34801561031257600080fd5b50600b546102ce906001600160a01b031681565b34801561033257600080fd5b5061033c600e5481565b604051908152602001610261565b34801561035657600080fd5b5060085461033c565b34801561036b57600080fd5b5061028a61037a3660046122d4565b6109a0565b34801561038b57600080fd5b5061033c60105481565b3480156103a157600080fd5b5061028a6103b03660046123ae565b610b22565b3480156103c157600080fd5b5061033c6103d036600461225f565b610b53565b61028a610be9565b3480156103e957600080fd5b5061028a6103f83660046123ae565b610c39565b34801561040957600080fd5b5061041d6104183660046123ef565b610c54565b604051610261919061240c565b34801561043657600080fd5b5061028a610445366004612231565b610cf6565b34801561045657600080fd5b5061028a610465366004612450565b610d25565b34801561047657600080fd5b5061028a610e68565b34801561048b57600080fd5b5061033c61049a366004612231565b610f26565b3480156104ab57600080fd5b5061028a6104ba366004612580565b610fb9565b3480156104cb57600080fd5b506011546102559060ff1681565b3480156104e557600080fd5b506102ce6104f4366004612231565b610ffa565b34801561050557600080fd5b5061028a6105143660046123ef565b611071565b34801561052557600080fd5b506102a16110c3565b34801561053a57600080fd5b5061033c6105493660046123ef565b611151565b34801561055a57600080fd5b5061028a6111d8565b34801561056f57600080fd5b5061028a61057e366004612231565b61120c565b34801561058f57600080fd5b50600a546001600160a01b03166102ce565b3480156105ad57600080fd5b506102a161123b565b61028a6105c4366004612231565b61124a565b3480156105d557600080fd5b5061028a6105e43660046125c9565b6112f7565b3480156105f557600080fd5b5061028a610604366004612602565b611302565b34801561061557600080fd5b5061028a61133a565b34801561062a57600080fd5b506102a161139d565b34801561063f57600080fd5b506102a161064e366004612231565b6113aa565b34801561065f57600080fd5b5061033c600f5481565b34801561067557600080fd5b5061028a610684366004612580565b611488565b34801561069557600080fd5b506102556106a4366004612682565b6001600160a01b03918216600090815260056020908152604080832093909416825291909152205460ff1690565b3480156106de57600080fd5b5061028a6106ed3660046123ef565b6114c5565b60006001600160e01b0319821663780e9d6360e01b148061071757506107178261155d565b92915050565b600a546001600160a01b031633146107505760405162461bcd60e51b8152600401610747906126b0565b60405180910390fd5b6011805460ff1916911515919091179055565b606060008054610772906126e5565b80601f016020809104026020016040519081016040528092919081815260200182805461079e906126e5565b80156107eb5780601f106107c0576101008083540402835291602001916107eb565b820191906000526020600020905b8154815290600101906020018083116107ce57829003601f168201915b5050505050905090565b6000818152600260205260408120546001600160a01b031661086e5760405162461bcd60e51b815260206004820152602c60248201527f4552433732313a20617070726f76656420717565727920666f72206e6f6e657860448201526b34b9ba32b73a103a37b5b2b760a11b6064820152608401610747565b506000908152600460205260409020546001600160a01b031690565b600061089582610ffa565b9050806001600160a01b0316836001600160a01b031614156109035760405162461bcd60e51b815260206004820152602160248201527f4552433732313a20617070726f76616c20746f2063757272656e74206f776e656044820152603960f91b6064820152608401610747565b336001600160a01b038216148061091f575061091f81336106a4565b6109915760405162461bcd60e51b815260206004820152603860248201527f4552433732313a20617070726f76652063616c6c6572206973206e6f74206f7760448201527f6e6572206e6f7220617070726f76656420666f7220616c6c00000000000000006064820152608401610747565b61099b83836115ad565b505050565b600085856040516109b2929190612720565b604051908190038120600b54631876eed960e01b83529092506001600160a01b031690631876eed9906109f9908e908e908e908e908e9089908d908d908d90600401612759565b602060405180830381600087803b158015610a1357600080fd5b505af1158015610a27573d6000803e3d6000fd5b505050506040513d601f19601f82011682018060405250810190610a4b91906127b8565b610a6857604051631403112d60e21b815260040160405180910390fd5b610b158a8a8080601f01602080910402602001604051908101604052809392919081815260200183838082843760009201919091525050604080516020601f8e018190048102820181019092528c815292508c91508b908190840183828082843760009201919091525050604080516020601f8b018190048102820181019092528981528c93508b9250908a908a90819084018382808284376000920191909152508a925061161b915050565b5050505050505050505050565b610b2c33826116e0565b610b485760405162461bcd60e51b8152600401610747906127d5565b61099b8383836117d7565b6000610b5e83611151565b8210610bc05760405162461bcd60e51b815260206004820152602b60248201527f455243373231456e756d657261626c653a206f776e657220696e646578206f7560448201526a74206f6620626f756e647360a81b6064820152608401610747565b506001600160a01b03919091166000908152600660209081526040808320938352929052205490565b600a546001600160a01b03163314610c135760405162461bcd60e51b8152600401610747906126b0565b60405133904780156108fc02916000818181858888f19350505050610c3757600080fd5b565b61099b83838360405180602001604052806000815250611302565b60606000610c6183611151565b905060008167ffffffffffffffff811115610c7e57610c7e6124f4565b604051908082528060200260200182016040528015610ca7578160200160208202803683370190505b50905060005b82811015610cee57610cbf8582610b53565b828281518110610cd157610cd1612826565b602090810291909101015280610ce681612852565b915050610cad565b509392505050565b600a546001600160a01b03163314610d205760405162461bcd60e51b8152600401610747906126b0565b600e55565b60008282604051610d37929190612720565b604051908190038120600b54635f6970c360e01b83529092506001600160a01b031690635f6970c390610d78908b908b908b908b908b90899060040161286d565b602060405180830381600087803b158015610d9257600080fd5b505af1158015610da6573d6000803e3d6000fd5b505050506040513d601f19601f82011682018060405250810190610dca91906127b8565b610de757604051631403112d60e21b815260040160405180910390fd5b610e5e87878080601f01602080910402602001604051908101604052809392919081815260200183838082843760009201919091525050604080516020601f8b0181900481028201810190925289815292508991508890819084018382808284376000920191909152508892508791506113349050565b5050505050505050565b600a546001600160a01b03163314610e925760405162461bcd60e51b8152600401610747906126b0565b60115460145460135460405163a9059cbb60e01b81526001600160a01b0392831660048201526024810191909152610100909204169063a9059cbb90604401602060405180830381600087803b158015610eeb57600080fd5b505af1158015610eff573d6000803e3d6000fd5b505050506040513d601f19601f82011682018060405250810190610f2391906127b8565b50565b6000610f3160085490565b8210610f945760405162461bcd60e51b815260206004820152602c60248201527f455243373231456e756d657261626c653a20676c6f62616c20696e646578206f60448201526b7574206f6620626f756e647360a01b6064820152608401610747565b60088281548110610fa757610fa7612826565b90600052602060002001549050919050565b600a546001600160a01b03163314610fe35760405162461bcd60e51b8152600401610747906126b0565b8051610ff690600c9060208401906120cf565b5050565b6000818152600260205260408120546001600160a01b0316806107175760405162461bcd60e51b815260206004820152602960248201527f4552433732313a206f776e657220717565727920666f72206e6f6e657869737460448201526832b73a103a37b5b2b760b91b6064820152608401610747565b600a546001600160a01b0316331461109b5760405162461bcd60e51b8152600401610747906126b0565b601180546001600160a01b0390921661010002610100600160a81b0319909216919091179055565b600c80546110d0906126e5565b80601f01602080910402602001604051908101604052809291908181526020018280546110fc906126e5565b80156111495780601f1061111e57610100808354040283529160200191611149565b820191906000526020600020905b81548152906001019060200180831161112c57829003601f168201915b505050505081565b60006001600160a01b0382166111bc5760405162461bcd60e51b815260206004820152602a60248201527f4552433732313a2062616c616e636520717565727920666f7220746865207a65604482015269726f206164647265737360b01b6064820152608401610747565b506001600160a01b031660009081526003602052604090205490565b600a546001600160a01b031633146112025760405162461bcd60e51b8152600401610747906126b0565b610c37600061197e565b600a546001600160a01b031633146112365760405162461bcd60e51b8152600401610747906126b0565b601055565b606060018054610772906126e5565b600061125560085490565b60115490915060ff161561126857600080fd5b6000821161127557600080fd5b60105482111561128457600080fd5b600f5461129183836128ae565b111561129c57600080fd5b600a546001600160a01b031633146112c85781600e546112bc91906128c6565b3410156112c857600080fd5b60015b82811161099b576112e5336112e083856128ae565b6119d0565b806112ef81612852565b9150506112cb565b610ff63383836119ea565b61130c33836116e0565b6113285760405162461bcd60e51b8152600401610747906127d5565b61133484848484611ab9565b50505050565b3360009081526012602052604090205461135357600080fd5b3360008181526012602052604080822054905181156108fc0292818181858888f1935050505015801561138a573d6000803e3d6000fd5b5033600090815260126020526040812055565b600d80546110d0906126e5565b6000818152600260205260409020546060906001600160a01b03166114295760405162461bcd60e51b815260206004820152602f60248201527f4552433732314d657461646174613a2055524920717565727920666f72206e6f60448201526e3732bc34b9ba32b73a103a37b5b2b760891b6064820152608401610747565b6000611433611aec565b905060008151116114535760405180602001604052806000815250611481565b8061145d84611afb565b600d604051602001611471939291906128e5565b6040516020818303038152906040525b9392505050565b600a546001600160a01b031633146114b25760405162461bcd60e51b8152600401610747906126b0565b8051610ff690600d9060208401906120cf565b600a546001600160a01b031633146114ef5760405162461bcd60e51b8152600401610747906126b0565b6001600160a01b0381166115545760405162461bcd60e51b815260206004820152602660248201527f4f776e61626c653a206e6577206f776e657220697320746865207a65726f206160448201526564647265737360d01b6064820152608401610747565b610f238161197e565b60006001600160e01b031982166380ac58cd60e01b148061158e57506001600160e01b03198216635b5e139f60e01b145b8061071757506301ffc9a760e01b6001600160e01b0319831614610717565b600081815260046020526040902080546001600160a01b0319166001600160a01b03841690811790915581906115e282610ffa565b6001600160a01b03167f8c5be1e5ebec7d5bd14f71427d1e84f3dd0314c0f7b2291e5b200ac8c7c3b92560405160405180910390a45050565b60008061162a8587018761225f565b9092509050600061163a60085490565b60115490915060ff161561164d57600080fd5b600f5461165a83836128ae565b116116a757836013600082825461167191906128ae565b90915550600190505b8281116116a15761168f846112e083856128ae565b8061169981612852565b91505061167a565b506116d5565b6001600160a01b038316600090815260126020526040812080548692906116cf9084906128ae565b90915550505b505050505050505050565b6000818152600260205260408120546001600160a01b03166117595760405162461bcd60e51b815260206004820152602c60248201527f4552433732313a206f70657261746f7220717565727920666f72206e6f6e657860448201526b34b9ba32b73a103a37b5b2b760a11b6064820152608401610747565b600061176483610ffa565b9050806001600160a01b0316846001600160a01b031614806117ab57506001600160a01b0380821660009081526005602090815260408083209388168352929052205460ff165b806117cf5750836001600160a01b03166117c4846107f5565b6001600160a01b0316145b949350505050565b826001600160a01b03166117ea82610ffa565b6001600160a01b03161461184e5760405162461bcd60e51b815260206004820152602560248201527f4552433732313a207472616e736665722066726f6d20696e636f72726563742060448201526437bbb732b960d91b6064820152608401610747565b6001600160a01b0382166118b05760405162461bcd60e51b8152602060048201526024808201527f4552433732313a207472616e7366657220746f20746865207a65726f206164646044820152637265737360e01b6064820152608401610747565b6118bb838383611bf9565b6118c66000826115ad565b6001600160a01b03831660009081526003602052604081208054600192906118ef9084906129a9565b90915550506001600160a01b038216600090815260036020526040812080546001929061191d9084906128ae565b909155505060008181526002602052604080822080546001600160a01b0319166001600160a01b0386811691821790925591518493918716917fddf252ad1be2c89b69c2b068fc378daa952ba7f163c4a11628f55a4df523b3ef91a4505050565b600a80546001600160a01b038381166001600160a01b0319831681179093556040519116919082907f8be0079c531659141344cd1fd0a4f28419497f9722a3daafe3b4186f6b6457e090600090a35050565b610ff6828260405180602001604052806000815250611cb1565b816001600160a01b0316836001600160a01b03161415611a4c5760405162461bcd60e51b815260206004820152601960248201527f4552433732313a20617070726f766520746f2063616c6c6572000000000000006044820152606401610747565b6001600160a01b03838116600081815260056020908152604080832094871680845294825291829020805460ff191686151590811790915591519182527f17307eab39ab6107e8899845ad3d59bd9653f200f220920489ca2b5937696c31910160405180910390a3505050565b611ac48484846117d7565b611ad084848484611ce4565b6113345760405162461bcd60e51b8152600401610747906129c0565b6060600c8054610772906126e5565b606081611b1f5750506040805180820190915260018152600360fc1b602082015290565b8160005b8115611b495780611b3381612852565b9150611b429050600a83612a28565b9150611b23565b60008167ffffffffffffffff811115611b6457611b646124f4565b6040519080825280601f01601f191660200182016040528015611b8e576020820181803683370190505b5090505b84156117cf57611ba36001836129a9565b9150611bb0600a86612a3c565b611bbb9060306128ae565b60f81b818381518110611bd057611bd0612826565b60200101906001600160f81b031916908160001a905350611bf2600a86612a28565b9450611b92565b6001600160a01b038316611c5457611c4f81600880546000838152600960205260408120829055600182018355919091527ff3f7a9fe364faab93b216da50a3214154f22a0a2b415b23a84c8169e8b636ee30155565b611c77565b816001600160a01b0316836001600160a01b031614611c7757611c778382611df1565b6001600160a01b038216611c8e5761099b81611e8e565b826001600160a01b0316826001600160a01b03161461099b5761099b8282611f3d565b611cbb8383611f81565b611cc86000848484611ce4565b61099b5760405162461bcd60e51b8152600401610747906129c0565b60006001600160a01b0384163b15611de657604051630a85bd0160e11b81526001600160a01b0385169063150b7a0290611d28903390899088908890600401612a50565b602060405180830381600087803b158015611d4257600080fd5b505af1925050508015611d72575060408051601f3d908101601f19168201909252611d6f91810190612a8d565b60015b611dcc573d808015611da0576040519150601f19603f3d011682016040523d82523d6000602084013e611da5565b606091505b508051611dc45760405162461bcd60e51b8152600401610747906129c0565b805181602001fd5b6001600160e01b031916630a85bd0160e11b1490506117cf565b506001949350505050565b60006001611dfe84611151565b611e0891906129a9565b600083815260076020526040902054909150808214611e5b576001600160a01b03841660009081526006602090815260408083208584528252808320548484528184208190558352600790915290208190555b5060009182526007602090815260408084208490556001600160a01b039094168352600681528383209183525290812055565b600854600090611ea0906001906129a9565b60008381526009602052604081205460088054939450909284908110611ec857611ec8612826565b906000526020600020015490508060088381548110611ee957611ee9612826565b6000918252602080832090910192909255828152600990915260408082208490558582528120556008805480611f2157611f21612aaa565b6001900381819060005260206000200160009055905550505050565b6000611f4883611151565b6001600160a01b039093166000908152600660209081526040808320868452825280832085905593825260079052919091209190915550565b6001600160a01b038216611fd75760405162461bcd60e51b815260206004820181905260248201527f4552433732313a206d696e7420746f20746865207a65726f20616464726573736044820152606401610747565b6000818152600260205260409020546001600160a01b03161561203c5760405162461bcd60e51b815260206004820152601c60248201527f4552433732313a20746f6b656e20616c7265616479206d696e746564000000006044820152606401610747565b61204860008383611bf9565b6001600160a01b03821660009081526003602052604081208054600192906120719084906128ae565b909155505060008181526002602052604080822080546001600160a01b0319166001600160a01b03861690811790915590518392907fddf252ad1be2c89b69c2b068fc378daa952ba7f163c4a11628f55a4df523b3ef908290a45050565b8280546120db906126e5565b90600052602060002090601f0160209004810192826120fd5760008555612143565b82601f1061211657805160ff1916838001178555612143565b82800160010185558215612143579182015b82811115612143578251825591602001919060010190612128565b5061214f929150612153565b5090565b5b8082111561214f5760008155600101612154565b6001600160e01b031981168114610f2357600080fd5b60006020828403121561219057600080fd5b813561148181612168565b8015158114610f2357600080fd5b6000602082840312156121bb57600080fd5b81356114818161219b565b60005b838110156121e15781810151838201526020016121c9565b838111156113345750506000910152565b6000815180845261220a8160208601602086016121c6565b601f01601f19169290920160200192915050565b60208152600061148160208301846121f2565b60006020828403121561224357600080fd5b5035919050565b6001600160a01b0381168114610f2357600080fd5b6000806040838503121561227257600080fd5b823561227d8161224a565b946020939093013593505050565b60008083601f84011261229d57600080fd5b50813567ffffffffffffffff8111156122b557600080fd5b6020830191508360208285010111156122cd57600080fd5b9250929050565b60008060008060008060008060008060c08b8d0312156122f357600080fd5b8a35995060208b013567ffffffffffffffff8082111561231257600080fd5b61231e8e838f0161228b565b909b50995060408d013591508082111561233757600080fd5b6123438e838f0161228b565b909950975060608d013591508082111561235c57600080fd5b6123688e838f0161228b565b909750955060808d013591508082111561238157600080fd5b5061238e8d828e0161228b565b9150809450508092505060a08b013590509295989b9194979a5092959850565b6000806000606084860312156123c357600080fd5b83356123ce8161224a565b925060208401356123de8161224a565b929592945050506040919091013590565b60006020828403121561240157600080fd5b81356114818161224a565b6020808252825182820181905260009190848201906040850190845b8181101561244457835183529284019291840191600101612428565b50909695505050505050565b60008060008060008060006080888a03121561246b57600080fd5b87359650602088013567ffffffffffffffff8082111561248a57600080fd5b6124968b838c0161228b565b909850965060408a01359150808211156124af57600080fd5b6124bb8b838c0161228b565b909650945060608a01359150808211156124d457600080fd5b506124e18a828b0161228b565b989b979a50959850939692959293505050565b634e487b7160e01b600052604160045260246000fd5b600067ffffffffffffffff80841115612525576125256124f4565b604051601f8501601f19908116603f0116810190828211818310171561254d5761254d6124f4565b8160405280935085815286868601111561256657600080fd5b858560208301376000602087830101525050509392505050565b60006020828403121561259257600080fd5b813567ffffffffffffffff8111156125a957600080fd5b8201601f810184136125ba57600080fd5b6117cf8482356020840161250a565b600080604083850312156125dc57600080fd5b82356125e78161224a565b915060208301356125f78161219b565b809150509250929050565b6000806000806080858703121561261857600080fd5b84356126238161224a565b935060208501356126338161224a565b925060408501359150606085013567ffffffffffffffff81111561265657600080fd5b8501601f8101871361266757600080fd5b6126768782356020840161250a565b91505092959194509250565b6000806040838503121561269557600080fd5b82356126a08161224a565b915060208301356125f78161224a565b6020808252818101527f4f776e61626c653a2063616c6c6572206973206e6f7420746865206f776e6572604082015260600190565b600181811c908216806126f957607f821691505b6020821081141561271a57634e487b7160e01b600052602260045260246000fd5b50919050565b8183823760009101908152919050565b81835281816020850137506000828201602090810191909152601f909101601f19169091010190565b89815260c06020820152600061277360c083018a8c612730565b828103604084015261278681898b612730565b905086606084015282810360808401526127a1818688612730565b9150508260a08301529a9950505050505050505050565b6000602082840312156127ca57600080fd5b81516114818161219b565b60208082526031908201527f4552433732313a207472616e736665722063616c6c6572206973206e6f74206f6040820152701ddb995c881b9bdc88185c1c1c9bdd9959607a1b606082015260800190565b634e487b7160e01b600052603260045260246000fd5b634e487b7160e01b600052601160045260246000fd5b60006000198214156128665761286661283c565b5060010190565b868152608060208201526000612887608083018789612730565b828103604084015261289a818688612730565b915050826060830152979650505050505050565b600082198211156128c1576128c161283c565b500190565b60008160001904831182151516156128e0576128e061283c565b500290565b6000845160206128f88285838a016121c6565b85519184019161290b8184848a016121c6565b8554920191600090600181811c908083168061292857607f831692505b85831081141561294657634e487b7160e01b85526022600452602485fd5b80801561295a576001811461296b57612998565b60ff19851688528388019550612998565b60008b81526020902060005b858110156129905781548a820152908401908801612977565b505083880195505b50939b9a5050505050505050505050565b6000828210156129bb576129bb61283c565b500390565b60208082526032908201527f4552433732313a207472616e7366657220746f206e6f6e20455243373231526560408201527131b2b4bb32b91034b6b83632b6b2b73a32b960711b606082015260800190565b634e487b7160e01b600052601260045260246000fd5b600082612a3757612a37612a12565b500490565b600082612a4b57612a4b612a12565b500690565b6001600160a01b0385811682528416602082015260408101839052608060608201819052600090612a83908301846121f2565b9695505050505050565b600060208284031215612a9f57600080fd5b815161148181612168565b634e487b7160e01b600052603160045260246000fdfea2646970667358221220cfe5264b0fd24881c9116dcf354934b6e06f79d651a94a5339d464c49bcdc1f264736f6c63430008090033",
  "linkReferences": {},
  "deployedLinkReferences": {}
}