{
  "_format": "hh-sol-artifact-1",
  "contractName": "MintNFTCrossChain",
  "sourceName": "contracts/MintNFTCrossChain.sol",
  "abi": [
    {
      "inputs": [
        {
          "internalType": "address",
          "name": "_gateway",
          "type": "address"
        },
        {
          "internalType": "address",
          "name": "_gasReceiver",
          "type": "address"
        },
        {
          "internalType": "address",
          "name": "_tokenAddress",
          "type": "address"
        },
        {
          "internalType": "string",
          "name": "_destinationAddress",
          "type": "string"
        },
        {
          "internalType": "string",
          "name": "_destinationChain",
          "type": "string"
        }
      ],
      "stateMutability": "nonpayable",
      "type": "constructor"
    },
    {
      "anonymous": false,
      "inputs": [
        {
          "indexed": true,
          "internalType": "address",
          "name": "previousOwner",
          "type": "address"
        },
        {
          "indexed": true,
          "internalType": "address",
          "name": "newOwner",
          "type": "address"
        }
      ],
      "name": "OwnershipTransferred",
      "type": "event"
    },
    {
      "inputs": [
        {
          "internalType": "uint256",
          "name": "_mintAmount",
          "type": "uint256"
        }
      ],
      "name": "mint",
      "outputs": [],
      "stateMutability": "payable",
      "type": "function"
    },
    {
      "inputs": [],
      "name": "owner",
      "outputs": [
        {
          "internalType": "address",
          "name": "",
          "type": "address"
        }
      ],
      "stateMutability": "view",
      "type": "function"
    },
    {
      "inputs": [],
      "name": "renounceOwnership",
      "outputs": [],
      "stateMutability": "nonpayable",
      "type": "function"
    },
    {
      "inputs": [
        {
          "internalType": "uint256",
          "name": "_newCost",
          "type": "uint256"
        }
      ],
      "name": "setCostNFT",
      "outputs": [],
      "stateMutability": "nonpayable",
      "type": "function"
    },
    {
      "inputs": [
        {
          "internalType": "string",
          "name": "_newAddress",
          "type": "string"
        }
      ],
      "name": "setDestinationAddress",
      "outputs": [],
      "stateMutability": "nonpayable",
      "type": "function"
    },
    {
      "inputs": [
        {
          "internalType": "string",
          "name": "_newChain",
          "type": "string"
        }
      ],
      "name": "setDestinationChain",
      "outputs": [],
      "stateMutability": "nonpayable",
      "type": "function"
    },
    {
      "inputs": [
        {
          "internalType": "address",
          "name": "newOwner",
          "type": "address"
        }
      ],
      "name": "transferOwnership",
      "outputs": [],
      "stateMutability": "nonpayable",
      "type": "function"
    }
  ],
  "bytecode": "0x608060405266071afd498d00006006553480156200001c57600080fd5b5060405162000e8938038062000e898339810160408190526200003f91620002b8565b6200004a33620000d8565b600180546001600160a01b03199081166001600160a01b038881169182179093556002805483168885169081179091556005805484169488169490941790935560078054831690911790556008805490911690911790558151620000b690600390602085019062000128565b508051620000cc90600490602084019062000128565b50505050505062000398565b600080546001600160a01b038381166001600160a01b0319831681178455604051919092169283917f8be0079c531659141344cd1fd0a4f28419497f9722a3daafe3b4186f6b6457e09190a35050565b82805462000136906200035b565b90600052602060002090601f0160209004810192826200015a5760008555620001a5565b82601f106200017557805160ff1916838001178555620001a5565b82800160010185558215620001a5579182015b82811115620001a557825182559160200191906001019062000188565b50620001b3929150620001b7565b5090565b5b80821115620001b35760008155600101620001b8565b80516001600160a01b0381168114620001e657600080fd5b919050565b634e487b7160e01b600052604160045260246000fd5b600082601f8301126200021357600080fd5b81516001600160401b0380821115620002305762000230620001eb565b604051601f8301601f19908116603f011681019082821181831017156200025b576200025b620001eb565b816040528381526020925086838588010111156200027857600080fd5b600091505b838210156200029c57858201830151818301840152908201906200027d565b83821115620002ae5760008385830101525b9695505050505050565b600080600080600060a08688031215620002d157600080fd5b620002dc86620001ce565b9450620002ec60208701620001ce565b9350620002fc60408701620001ce565b60608701519093506001600160401b03808211156200031a57600080fd5b6200032889838a0162000201565b935060808801519150808211156200033f57600080fd5b506200034e8882890162000201565b9150509295509295909350565b600181811c908216806200037057607f821691505b602082108114156200039257634e487b7160e01b600052602260045260246000fd5b50919050565b610ae180620003a86000396000f3fe6080604052600436106100705760003560e01c8063a0712d681161004e578063a0712d68146100d8578063b0b65cba146100eb578063f2fde38b1461010b578063f6a7668a1461012b57600080fd5b80633dade09514610075578063715018a6146100975780638da5cb5b146100ac575b600080fd5b34801561008157600080fd5b506100956100903660046106ef565b61014b565b005b3480156100a357600080fd5b50610095610183565b3480156100b857600080fd5b50600054604080516001600160a01b039092168252519081900360200190f35b6100956100e63660046106ef565b6101b9565b3480156100f757600080fd5b5061009561010636600461071e565b6104ed565b34801561011757600080fd5b506100956101263660046107cf565b61052e565b34801561013757600080fd5b5061009561014636600461071e565b6105c9565b6000546001600160a01b0316331461017e5760405162461bcd60e51b8152600401610175906107ff565b60405180910390fd5b600655565b6000546001600160a01b031633146101ad5760405162461bcd60e51b8152600401610175906107ff565b6101b76000610606565b565b6000600654826101c99190610834565b6005546040516370a0823160e01b815233600482015291925082916001600160a01b03909116906370a082319060240160206040518083038186803b15801561021157600080fd5b505afa158015610225573d6000803e3d6000fd5b505050506040513d601f19601f820116820180604052508101906102499190610861565b101561025457600080fd5b6005546040516323b872dd60e01b8152336004820152306024820152604481018390526001600160a01b03909116906323b872dd90606401602060405180830381600087803b1580156102a657600080fd5b505af11580156102ba573d6000803e3d6000fd5b505050506040513d601f19601f820116820180604052508101906102de919061087a565b5060055460075460405163095ea7b360e01b81526001600160a01b0391821660048201526024810184905291169063095ea7b390604401602060405180830381600087803b15801561032f57600080fd5b505af1158015610343573d6000803e3d6000fd5b505050506040513d601f19601f82011682018060405250810190610367919061087a565b5060055460085460405163095ea7b360e01b81526001600160a01b0391821660048201526024810184905291169063095ea7b390604401602060405180830381600087803b1580156103b857600080fd5b505af11580156103cc573d6000803e3d6000fd5b505050506040513d601f19601f820116820180604052508101906103f0919061087a565b506040805133602082018190528183018590528251808303840181526060830193849052600254636316100160e11b909452926001600160a01b03169163c62c200291349161044d91309160049160039189918b916064016109c4565b6000604051808303818588803b15801561046657600080fd5b505af115801561047a573d6000803e3d6000fd5b5050600154604051632d505c2160e21b81526001600160a01b03909116935063b541708492506104b69150600490600390869088908401610a44565b600060405180830381600087803b1580156104d057600080fd5b505af11580156104e4573d6000803e3d6000fd5b50505050505050565b6000546001600160a01b031633146105175760405162461bcd60e51b8152600401610175906107ff565b805161052a906003906020840190610656565b5050565b6000546001600160a01b031633146105585760405162461bcd60e51b8152600401610175906107ff565b6001600160a01b0381166105bd5760405162461bcd60e51b815260206004820152602660248201527f4f776e61626c653a206e6577206f776e657220697320746865207a65726f206160448201526564647265737360d01b6064820152608401610175565b6105c681610606565b50565b6000546001600160a01b031633146105f35760405162461bcd60e51b8152600401610175906107ff565b805161052a906004906020840190610656565b600080546001600160a01b038381166001600160a01b0319831681178455604051919092169283917f8be0079c531659141344cd1fd0a4f28419497f9722a3daafe3b4186f6b6457e09190a35050565b8280546106629061089c565b90600052602060002090601f01602090048101928261068457600085556106ca565b82601f1061069d57805160ff19168380011785556106ca565b828001600101855582156106ca579182015b828111156106ca5782518255916020019190600101906106af565b506106d69291506106da565b5090565b5b808211156106d657600081556001016106db565b60006020828403121561070157600080fd5b5035919050565b634e487b7160e01b600052604160045260246000fd5b60006020828403121561073057600080fd5b813567ffffffffffffffff8082111561074857600080fd5b818401915084601f83011261075c57600080fd5b81358181111561076e5761076e610708565b604051601f8201601f19908116603f0116810190838211818310171561079657610796610708565b816040528281528760208487010111156107af57600080fd5b826020860160208301376000928101602001929092525095945050505050565b6000602082840312156107e157600080fd5b81356001600160a01b03811681146107f857600080fd5b9392505050565b6020808252818101527f4f776e61626c653a2063616c6c6572206973206e6f7420746865206f776e6572604082015260600190565b600081600019048311821515161561085c57634e487b7160e01b600052601160045260246000fd5b500290565b60006020828403121561087357600080fd5b5051919050565b60006020828403121561088c57600080fd5b815180151581146107f857600080fd5b600181811c908216806108b057607f821691505b602082108114156108d157634e487b7160e01b600052602260045260246000fd5b50919050565b8054600090600181811c90808316806108f157607f831692505b602080841082141561091357634e487b7160e01b600052602260045260246000fd5b8388526020880182801561092e576001811461093f5761096a565b60ff1987168252828201975061096a565b60008981526020902060005b878110156109645781548482015290860190840161094b565b83019850505b5050505050505092915050565b6000815180845260005b8181101561099d57602081850181015186830182015201610981565b818111156109af576000602083870101525b50601f01601f19169290920160200192915050565b600060018060a01b03808916835260e060208401526109e660e08401896108d7565b83810360408501526109f881896108d7565b90508381036060850152610a0c8188610977565b848103608086015260048152630ae8aa8960e31b602082015260a0850196909652509290921660c09091015250604001949350505050565b60a081526000610a5760a08301876108d7565b8281036020840152610a6981876108d7565b90508281036040840152610a7d8186610977565b838103606085015260048152630ae8aa8960e31b60208201526080909301939093525060400194935050505056fea26469706673582212207829ea75ff9ffa5c26529d0dda0df750ee509979b799fe5b6d0a04ce51ab5a1464736f6c63430008090033",
  "linkReferences": {},
  "deployedLinkReferences": {}
}